:020000020000FC
:100004000C94EE000C94EF000C9490000C9490006F
:100014000F930FEF0DBF01E20EBF0FEF00BB01B94D
:10002400002701BB02B908E331D04AD00E947E0008
:1000340008E32CD045D00E94750008E327D040D0B7
:1000440008E324D03DD008E021D03AD001E01ED00E
:1000540037D006E01BD034D00EE018D031D008E4FD
:1000640020D02ED005E41DD02BD00CE41AD028D0FB
:100074000CE417D025D00FE414D022D00F910895AA
:1000840005D01ED008950DD01BD0089501BB0000EB
:10009400169A0000000000001698000000000000FE
:1000A400089501BB179A000000000000169A000092
:1000B4000000000016980000000000001798089542
:1000C4000F93002700BB01BB159A0000169A00008D
:1000D400000000000FB1169807FDF7CF15980FEF39
:1000E40000BB0F9108958F939F939FE08CE9019734
:1000F400F1F79F918F910895F6DFF5DFF4DFF3DFD9
:10010400F2DF0895F9DFF8DF0895FCDFFBDFFADFA3
:10011400F9DFF8DF0895F9DFF8DF089500000C94A3
:1001240099000F930FEF07B908B90F9108950000D4
:100134000C94E3000F9300EF00930A010F910895CC
:100144000F931F932F933F933FEE1127E4DFDDDFDF
:100154001430D1F338B94FEF4A95F1F746B14F70E7
:100164004F3059F021E00027043039F0542F522346
:1001740041F00395220F0C94B600330F13950C94A1
:10018400AA00133049F0033059F0402F440F400FB8
:10019400410F4F5C0C94DD0041E4400F0C94DD00F2
:1001A400103029F0113031F043E20C94DD004AE2C2
:1001B4000C94DD0040E3F42F3F912F911F910F9198
:1001C400089500000C94ED000F930BB10F7F0E7F88
:1001D4000BB90F9108950000189518950F930027F7
:1001E4000AE0009369000DB3036078940F910895B9
:1001F4000FEF0DBF01E20EBF0FEF00BB01B90027E7
:1002040001BB02B908E342DF5BDF0E947E0008E322
:100214003DDF56DF0E94750008E338DF51DF08E355
:1002240035DF4EDF08E032DF4BDF01E02FDF48DF50
:1002340006E02CDF45DF0EE029DF42DF02E731DF95
:100244003FDF0E9493000FEF08B90E949C000E94B8
:08025400E6000E94F000FFCF5C
:00000001FF
