:020000020000FC
:0C0000000C94A6020C9426020C944B02F7
:10005C000C9470020F9301E029D042D00091100251
:10006C000E9448000CE72DD03BD0009122020E9448
:10007C0048000CE726D034D0009111020E944800B1
:10008C000F9108951F932F93202F11272A3018F0CA
:10009C002A501395FBCF205D022F13D021D01030A6
:1000AC0011F0212FF3CF2F911F91089501BB000068
:1000BC00169A0000000000001698000000000000D6
:1000CC00089501BB179A000000000000169A00006A
:1000DC00000000001698000000000000179808951A
:1000EC000F93002700BB01BB159A0000169A000065
:1000FC00000000000FB1169807FDF7CF15980FEF11
:10010C0000BB0F910895EF93FF93FFE0ECE931975B
:10011C00F1F7FF91EF910895F6DFF5DFF4DFF3DFF0
:10012C00F2DF0895F9DFF8DF0895FCDFFBDFFADF7B
:10013C00F9DFF8DF0895F9DFF8DF0895FCDFFBDF66
:10014C00F4DF0895F8DFF7DFF6DFF5DFF4DFF3DF38
:10015C00F2DFF1DFF0DFEFDF08950F9303E008B972
:10016C000F910AC00F9300EC08B90F9105C00F93C3
:10017C0008E108B90F9100C00E94D1001F931091A3
:10018C002702113051F3123041F3143031F31F9127
:10019C0008950C94D7000F930FEF07B908B90F917E
:1001AC00089500000F9300EF00930A010F9108953A
:1001BC000F931F932F933F933FEE1127BCDFB5DFB7
:1001CC001430D1F338B94FEF4A95F1F746B14F706F
:1001DC004F3059F021E00027043039F0542F5223CE
:1001EC0041F00395220F0C94F200330F13950C94ED
:1001FC00E600133071F0033079F0023039F0402F03
:10020C00440F400F410F425F0C941A0140E00C94D4
:10021C001A0140E00C941A01103019F040E00C94D3
:10022C001A014AE20C941A01F42F3F912F911F915D
:10023C000F9108950C9429010F930BB10F7F0E7F32
:10024C000BB90F91089500000C9423020F931F9388
:10025C00AF93CF930091280210E001130C94A401EA
:10026C0000912702013019F0023061F167C00F9341
:10027C001F9300911002003079F0F0910002FF936F
:10028C0011E0101749F0B2E0A0E0A11F08F4B395FB
:10029C00FC91FE931395F5CFFF911F910F910F2FAA
:1002AC000F9300912302083058F4B2E0AAE1A01F8A
:1002BC0008F4B3950395009323020F910C9301C09E
:1002CC000F912AC00F931F9300911102003079F007
:1002DC00F0910802FF9311E0101749F0B2E0A8E08A
:1002EC00A11F08F4B395FC91FE931395F5CFFF91E4
:1002FC001F910F910F2F0F9300912302083058F488
:10030C00B2E0AAE1A01F08F4B39503950093230271
:10031C000F910C9301C00F9111271F931091220282
:10032C00183058F4B2E0A2E1A11F08F4B39513956C
:10033C00109322021F911C9301C01F911F910F91CA
:10034C0008950F931F9300912702043059F013E086
:10035C0001270093270200912202003019F001E0DE
:10036C00009328021F910F9108950F9304E00093BE
:10037C0027020F91089508950F931F932F933F9386
:10038C004F935F93109122020027B2E0A2E1D2E0DA
:10039C00CAE140E050E0011779F02D913991231F0B
:1003AC0008F402C02A3F08F05395241718F4422F82
:1003BC000395F1CF0E94BB01009127020430B1F1EB
:1003CC005030A1F10F931F9300912202003079F06D
:1003DC00F0911202FF9311E0101749F0B2E0A2E184
:1003EC00A11F08F4B395FC91FE931395F5CFFF91E3
:1003FC001F910F911F2F0F931F9300912302003019
:10040C0079F0F0911A02FF9311E0101749F0B2E065
:10041C00AAE1A11F08F4B395FC91FE931395F5CFB7
:10042C00FF911F910F911F2F5A95CACF5F914F913A
:10043C003F912F911F910F91089500000C94A502EC
:10044C000F930FB70F930091290203950093290284
:10045C000230B8F0052D0F9300911002083058F4BB
:10046C00B2E0A0E0A01F08F4B3950395009310022E
:10047C000F910C9301C00F910E9430000027009344
:10048C0029020F910FBF0F9118950F930FB70F9370
:10049C0000912A02039500932A020330B8F0052D2F
:1004AC000F9300911102083058F4B2E0A8E0A01F9D
:1004BC0008F4B3950395009311020F910C9301C0AE
:1004CC000F910E943000002700932A020F910FBF5A
:1004DC000F9118950F930FB70F9300912602039568
:1004EC00009326020A3FB9F40027009326020091DC
:1004FC0025020395033019F40E942C010027009368
:10050C002502009124020395043B19F40E94A701D3
:10051C000027009324020F910FBF0F9118950F9392
:10052C0000270AE0009369000DB303600DBB00E0E7
:10053C0004BD04E005BD01E078940F91089500001E
:10054C000FEF0DBF01E20EBF0FEF00BB01B900278B
:10055C0001BB02B908E3AADDC3DD0E94920008E3E7
:10056C00A5DDBEDD0E94890008E3A0DDB9DD08E34E
:10057C009DDDB6DD08E09ADDB3DD01E097DDB0DD91
:10058C0006E094DDADDD0EE091DDAADD0E94D10028
:10059C000E94D8000E9422010E9495020E94DB0258
:1005AC00009110020E944800FFCF0F930027009388
:1005BC001002009311020093220200932302009375
:0C05CC00280201E0009327020F9108951F
:00000001FF
